{
  "_format": "hh-sol-artifact-1",
  "contractName": "CBGBCGI",
  "sourceName": "contracts/CBGBCGI.sol",
  "abi": [
    {
      "inputs": [],
      "stateMutability": "nonpayable",
      "type": "constructor"
    },
    {
      "anonymous": false,
      "inputs": [
        {
          "indexed": true,
          "internalType": "address",
          "name": "owner",
          "type": "address"
        },
        {
          "indexed": true,
          "internalType": "address",
          "name": "approved",
          "type": "address"
        },
        {
          "indexed": true,
          "internalType": "uint256",
          "name": "tokenId",
          "type": "uint256"
        }
      ],
      "name": "Approval",
      "type": "event"
    },
    {
      "anonymous": false,
      "inputs": [
        {
          "indexed": true,
          "internalType": "address",
          "name": "owner",
          "type": "address"
        },
        {
          "indexed": true,
          "internalType": "address",
          "name": "operator",
          "type": "address"
        },
        {
          "indexed": false,
          "internalType": "bool",
          "name": "approved",
          "type": "bool"
        }
      ],
      "name": "ApprovalForAll",
      "type": "event"
    },
    {
      "anonymous": false,
      "inputs": [
        {
          "indexed": true,
          "internalType": "address",
          "name": "previousOwner",
          "type": "address"
        },
        {
          "indexed": true,
          "internalType": "address",
          "name": "newOwner",
          "type": "address"
        }
      ],
      "name": "OwnershipTransferred",
      "type": "event"
    },
    {
      "anonymous": false,
      "inputs": [
        {
          "indexed": true,
          "internalType": "address",
          "name": "from",
          "type": "address"
        },
        {
          "indexed": true,
          "internalType": "address",
          "name": "to",
          "type": "address"
        },
        {
          "indexed": true,
          "internalType": "uint256",
          "name": "tokenId",
          "type": "uint256"
        }
      ],
      "name": "Transfer",
      "type": "event"
    },
    {
      "inputs": [],
      "name": "_sendEther",
      "outputs": [],
      "stateMutability": "payable",
      "type": "function"
    },
    {
      "inputs": [
        {
          "internalType": "address",
          "name": "to",
          "type": "address"
        },
        {
          "internalType": "uint256",
          "name": "tokenId",
          "type": "uint256"
        }
      ],
      "name": "approve",
      "outputs": [],
      "stateMutability": "nonpayable",
      "type": "function"
    },
    {
      "inputs": [
        {
          "internalType": "address",
          "name": "owner",
          "type": "address"
        }
      ],
      "name": "balanceOf",
      "outputs": [
        {
          "internalType": "uint256",
          "name": "",
          "type": "uint256"
        }
      ],
      "stateMutability": "view",
      "type": "function"
    },
    {
      "inputs": [
        {
          "internalType": "string[]",
          "name": "metadataGroup",
          "type": "string[]"
        }
      ],
      "name": "doubleMint",
      "outputs": [],
      "stateMutability": "payable",
      "type": "function"
    },
    {
      "inputs": [],
      "name": "drop_unlock_time",
      "outputs": [
        {
          "internalType": "uint256",
          "name": "",
          "type": "uint256"
        }
      ],
      "stateMutability": "view",
      "type": "function"
    },
    {
      "inputs": [
        {
          "internalType": "uint256",
          "name": "tokenId",
          "type": "uint256"
        }
      ],
      "name": "getApproved",
      "outputs": [
        {
          "internalType": "address",
          "name": "",
          "type": "address"
        }
      ],
      "stateMutability": "view",
      "type": "function"
    },
    {
      "inputs": [],
      "name": "getTime",
      "outputs": [
        {
          "internalType": "uint256",
          "name": "",
          "type": "uint256"
        }
      ],
      "stateMutability": "view",
      "type": "function"
    },
    {
      "inputs": [
        {
          "internalType": "address",
          "name": "owner",
          "type": "address"
        },
        {
          "internalType": "address",
          "name": "operator",
          "type": "address"
        }
      ],
      "name": "isApprovedForAll",
      "outputs": [
        {
          "internalType": "bool",
          "name": "",
          "type": "bool"
        }
      ],
      "stateMutability": "view",
      "type": "function"
    },
    {
      "inputs": [
        {
          "internalType": "string",
          "name": "_uri",
          "type": "string"
        }
      ],
      "name": "mint",
      "outputs": [],
      "stateMutability": "payable",
      "type": "function"
    },
    {
      "inputs": [],
      "name": "name",
      "outputs": [
        {
          "internalType": "string",
          "name": "",
          "type": "string"
        }
      ],
      "stateMutability": "view",
      "type": "function"
    },
    {
      "inputs": [],
      "name": "owner",
      "outputs": [
        {
          "internalType": "address",
          "name": "",
          "type": "address"
        }
      ],
      "stateMutability": "view",
      "type": "function"
    },
    {
      "inputs": [
        {
          "internalType": "uint256",
          "name": "tokenId",
          "type": "uint256"
        }
      ],
      "name": "ownerOf",
      "outputs": [
        {
          "internalType": "address",
          "name": "",
          "type": "address"
        }
      ],
      "stateMutability": "view",
      "type": "function"
    },
    {
      "inputs": [],
      "name": "renounceOwnership",
      "outputs": [],
      "stateMutability": "nonpayable",
      "type": "function"
    },
    {
      "inputs": [
        {
          "internalType": "address",
          "name": "from",
          "type": "address"
        },
        {
          "internalType": "address",
          "name": "to",
          "type": "address"
        },
        {
          "internalType": "uint256",
          "name": "tokenId",
          "type": "uint256"
        }
      ],
      "name": "safeTransferFrom",
      "outputs": [],
      "stateMutability": "nonpayable",
      "type": "function"
    },
    {
      "inputs": [
        {
          "internalType": "address",
          "name": "from",
          "type": "address"
        },
        {
          "internalType": "address",
          "name": "to",
          "type": "address"
        },
        {
          "internalType": "uint256",
          "name": "tokenId",
          "type": "uint256"
        },
        {
          "internalType": "bytes",
          "name": "data",
          "type": "bytes"
        }
      ],
      "name": "safeTransferFrom",
      "outputs": [],
      "stateMutability": "nonpayable",
      "type": "function"
    },
    {
      "inputs": [
        {
          "internalType": "address",
          "name": "operator",
          "type": "address"
        },
        {
          "internalType": "bool",
          "name": "approved",
          "type": "bool"
        }
      ],
      "name": "setApprovalForAll",
      "outputs": [],
      "stateMutability": "nonpayable",
      "type": "function"
    },
    {
      "inputs": [
        {
          "internalType": "uint256",
          "name": "newUnlockTime",
          "type": "uint256"
        }
      ],
      "name": "setUnlockTime",
      "outputs": [],
      "stateMutability": "nonpayable",
      "type": "function"
    },
    {
      "inputs": [
        {
          "internalType": "bytes4",
          "name": "interfaceId",
          "type": "bytes4"
        }
      ],
      "name": "supportsInterface",
      "outputs": [
        {
          "internalType": "bool",
          "name": "",
          "type": "bool"
        }
      ],
      "stateMutability": "view",
      "type": "function"
    },
    {
      "inputs": [],
      "name": "symbol",
      "outputs": [
        {
          "internalType": "string",
          "name": "",
          "type": "string"
        }
      ],
      "stateMutability": "view",
      "type": "function"
    },
    {
      "inputs": [
        {
          "internalType": "uint256",
          "name": "index",
          "type": "uint256"
        }
      ],
      "name": "tokenByIndex",
      "outputs": [
        {
          "internalType": "uint256",
          "name": "",
          "type": "uint256"
        }
      ],
      "stateMutability": "view",
      "type": "function"
    },
    {
      "inputs": [
        {
          "internalType": "address",
          "name": "owner",
          "type": "address"
        },
        {
          "internalType": "uint256",
          "name": "index",
          "type": "uint256"
        }
      ],
      "name": "tokenOfOwnerByIndex",
      "outputs": [
        {
          "internalType": "uint256",
          "name": "",
          "type": "uint256"
        }
      ],
      "stateMutability": "view",
      "type": "function"
    },
    {
      "inputs": [
        {
          "internalType": "uint256",
          "name": "tokenId",
          "type": "uint256"
        }
      ],
      "name": "tokenURI",
      "outputs": [
        {
          "internalType": "string",
          "name": "",
          "type": "string"
        }
      ],
      "stateMutability": "view",
      "type": "function"
    },
    {
      "inputs": [],
      "name": "totalSupply",
      "outputs": [
        {
          "internalType": "uint256",
          "name": "",
          "type": "uint256"
        }
      ],
      "stateMutability": "view",
      "type": "function"
    },
    {
      "inputs": [
        {
          "internalType": "address",
          "name": "from",
          "type": "address"
        },
        {
          "internalType": "address",
          "name": "to",
          "type": "address"
        },
        {
          "internalType": "uint256",
          "name": "tokenId",
          "type": "uint256"
        }
      ],
      "name": "transferFrom",
      "outputs": [],
      "stateMutability": "nonpayable",
      "type": "function"
    },
    {
      "inputs": [
        {
          "internalType": "address",
          "name": "newOwner",
          "type": "address"
        }
      ],
      "name": "transferOwnership",
      "outputs": [],
      "stateMutability": "nonpayable",
      "type": "function"
    },
    {
      "inputs": [],
      "name": "unlock_preview",
      "outputs": [
        {
          "internalType": "string",
          "name": "",
          "type": "string"
        }
      ],
      "stateMutability": "view",
      "type": "function"
    },
    {
      "inputs": [
        {
          "internalType": "uint256",
          "name": "",
          "type": "uint256"
        }
      ],
      "name": "walletPercents",
      "outputs": [
        {
          "internalType": "uint256",
          "name": "",
          "type": "uint256"
        }
      ],
      "stateMutability": "view",
      "type": "function"
    },
    {
      "inputs": [
        {
          "internalType": "uint256",
          "name": "",
          "type": "uint256"
        }
      ],
      "name": "wallets",
      "outputs": [
        {
          "internalType": "address",
          "name": "",
          "type": "address"
        }
      ],
      "stateMutability": "view",
      "type": "function"
    }
  ],
  "bytecode": "0x636387ee80600c55610100604052604f608081815290620027e660a03980516200003291600d9160209091019062000236565b506040805160e081018252603a8152600f60208201819052918101919091526005606082015260046080820152600260a0820152600160c08201526200007d90600e906007620002c5565b506040805160e081018252733d7fec357428418966f9d0824b9af2e179029164815273653229a1c558b87cba440bb82d296bd1e572c23d602082015273fe78bf9d611c6aab734a69810e79e8220278c8979181019190915273ffe7afe2b1fa96045e91e566a903a230cbb99f706060820152731b86c2909c765ec3be7ad953e3bd6f3c748ee07b608082015273fccc54e9aeb74f9be19a6b6bf0e048a2760f628a60a08201527343854dadf84d1918417d28708180ef7414f4c35960c08201526200014d906015906007620002fb565b503480156200015b57600080fd5b5060408051808201825260078152664342474243474960c81b60208083019182528351808501909452600484526321a123a160e11b908401528151919291620001a79160009162000236565b508051620001bd90600190602084019062000236565b505050620001da620001d4620001e060201b60201c565b620001e4565b6200039a565b3390565b600b80546001600160a01b038381166001600160a01b0319831681179093556040519116919082907f8be0079c531659141344cd1fd0a4f28419497f9722a3daafe3b4186f6b6457e090600090a35050565b82805462000244906200035d565b90600052602060002090601f016020900481019282620002685760008555620002b3565b82601f106200028357805160ff1916838001178555620002b3565b82800160010185558215620002b3579182015b82811115620002b357825182559160200191906001019062000296565b50620002c192915062000346565b5090565b8260078101928215620002b3579160200282015b82811115620002b3578251829060ff16905591602001919060010190620002d9565b8260078101928215620002b3579160200282015b82811115620002b357825182546001600160a01b0319166001600160a01b039091161782556020909201916001909101906200030f565b5b80821115620002c1576000815560010162000347565b600181811c908216806200037257607f821691505b602082108114156200039457634e487b7160e01b600052602260045260246000fd5b50919050565b61243c80620003aa6000396000f3fe6080604052600436106101b75760003560e01c806370a08231116100ec578063b88d4fde1161008a578063d85d3d2711610064578063d85d3d271461048d578063dace4557146104a0578063e985e9c5146104c0578063f2fde38b1461050957600080fd5b8063b88d4fde14610445578063bc069b9214610465578063c87b56dd1461046d57600080fd5b80638da5cb5b116100c65780638da5cb5b146103d257806395d89b41146103f0578063a22cb46514610405578063a786bf3e1461042557600080fd5b806370a082311461037d578063715018a61461039d5780637ad71f72146103b257600080fd5b80632e1b863f1161015957806342842e0e1161013357806342842e0e1461030a5780634f6ccce71461032a578063557ed1ba1461034a5780636352211e1461035d57600080fd5b80632e1b863f146102c15780632f745c59146102d75780634059df13146102f757600080fd5b8063095ea7b311610195578063095ea7b31461024b5780631643918c1461026d57806318160ddd1461028257806323b872dd146102a157600080fd5b806301ffc9a7146101bc57806306fdde03146101f1578063081812fc14610213575b600080fd5b3480156101c857600080fd5b506101dc6101d7366004611e7f565b610529565b60405190151581526020015b60405180910390f35b3480156101fd57600080fd5b5061020661053a565b6040516101e89190611ef4565b34801561021f57600080fd5b5061023361022e366004611f07565b6105cc565b6040516001600160a01b0390911681526020016101e8565b34801561025757600080fd5b5061026b610266366004611f37565b6105f3565b005b34801561027957600080fd5b5061020661072a565b34801561028e57600080fd5b506008545b6040519081526020016101e8565b3480156102ad57600080fd5b5061026b6102bc366004611f61565b6107b8565b3480156102cd57600080fd5b50610293600c5481565b3480156102e357600080fd5b506102936102f2366004611f37565b61083f565b61026b61030536600461205c565b6108e7565b34801561031657600080fd5b5061026b610325366004611f61565b61094c565b34801561033657600080fd5b50610293610345366004611f07565b610967565b34801561035657600080fd5b5042610293565b34801561036957600080fd5b50610233610378366004611f07565b610a0b565b34801561038957600080fd5b5061029361039836600461211f565b610a70565b3480156103a957600080fd5b5061026b610b0a565b3480156103be57600080fd5b506102336103cd366004611f07565b610b1e565b3480156103de57600080fd5b50600b546001600160a01b0316610233565b3480156103fc57600080fd5b50610206610b3e565b34801561041157600080fd5b5061026b61042036600461213a565b610b4d565b34801561043157600080fd5b50610293610440366004611f07565b610b5c565b34801561045157600080fd5b5061026b610460366004612176565b610b73565b61026b610c01565b34801561047957600080fd5b50610206610488366004611f07565b610cb9565b61026b61049b3660046121f2565b610d65565b3480156104ac57600080fd5b5061026b6104bb366004611f07565b610d8e565b3480156104cc57600080fd5b506101dc6104db366004612227565b6001600160a01b03918216600090815260056020908152604080832093909416825291909152205460ff1690565b34801561051557600080fd5b5061026b61052436600461211f565b610d9b565b600061053482610e28565b92915050565b6060600080546105499061225a565b80601f01602080910402602001604051908101604052809291908181526020018280546105759061225a565b80156105c25780601f10610597576101008083540402835291602001916105c2565b820191906000526020600020905b8154815290600101906020018083116105a557829003601f168201915b5050505050905090565b60006105d782610e66565b506000908152600460205260409020546001600160a01b031690565b60006105fe82610a0b565b9050806001600160a01b0316836001600160a01b0316141561068d5760405162461bcd60e51b815260206004820152602160248201527f4552433732313a20617070726f76616c20746f2063757272656e74206f776e6560448201527f720000000000000000000000000000000000000000000000000000000000000060648201526084015b60405180910390fd5b336001600160a01b03821614806106a957506106a981336104db565b61071b5760405162461bcd60e51b815260206004820152603e60248201527f4552433732313a20617070726f76652063616c6c6572206973206e6f7420746f60448201527f6b656e206f776e6572206e6f7220617070726f76656420666f7220616c6c00006064820152608401610684565b6107258383610eca565b505050565b600d80546107379061225a565b80601f01602080910402602001604051908101604052809291908181526020018280546107639061225a565b80156107b05780601f10610785576101008083540402835291602001916107b0565b820191906000526020600020905b81548152906001019060200180831161079357829003601f168201915b505050505081565b6107c23382610f45565b6108345760405162461bcd60e51b815260206004820152602e60248201527f4552433732313a2063616c6c6572206973206e6f7420746f6b656e206f776e6560448201527f72206e6f7220617070726f7665640000000000000000000000000000000000006064820152608401610684565b610725838383610fc4565b600061084a83610a70565b82106108be5760405162461bcd60e51b815260206004820152602b60248201527f455243373231456e756d657261626c653a206f776e657220696e646578206f7560448201527f74206f6620626f756e64730000000000000000000000000000000000000000006064820152608401610684565b506001600160a01b03919091166000908152600660209081526040808320938352929052205490565b60005b81518110156109405760006108fe60085490565b905061090a33826111a9565b61092d8184848151811061092057610920612295565b60200260200101516111c3565b5080610938816122c1565b9150506108ea565b50610949610c01565b50565b61072583838360405180602001604052806000815250610b73565b600061097260085490565b82106109e65760405162461bcd60e51b815260206004820152602c60248201527f455243373231456e756d657261626c653a20676c6f62616c20696e646578206f60448201527f7574206f6620626f756e647300000000000000000000000000000000000000006064820152608401610684565b600882815481106109f9576109f9612295565b90600052602060002001549050919050565b6000818152600260205260408120546001600160a01b0316806105345760405162461bcd60e51b815260206004820152601860248201527f4552433732313a20696e76616c696420746f6b656e20494400000000000000006044820152606401610684565b60006001600160a01b038216610aee5760405162461bcd60e51b815260206004820152602960248201527f4552433732313a2061646472657373207a65726f206973206e6f74206120766160448201527f6c6964206f776e657200000000000000000000000000000000000000000000006064820152608401610684565b506001600160a01b031660009081526003602052604090205490565b610b1261126c565b610b1c60006112c6565b565b60158160078110610b2e57600080fd5b01546001600160a01b0316905081565b6060600180546105499061225a565b610b58338383611325565b5050565b600e8160078110610b6c57600080fd5b0154905081565b610b7d3383610f45565b610bef5760405162461bcd60e51b815260206004820152602e60248201527f4552433732313a2063616c6c6572206973206e6f7420746f6b656e206f776e6560448201527f72206e6f7220617070726f7665640000000000000000000000000000000000006064820152608401610684565b610bfb848484846113f4565b50505050565b60005b600781101561094957600060158260078110610c2257610c22612295565b01546001600160a01b03166064600e8460078110610c4257610c42612295565b0154610c4e90346122dc565b610c589190612311565b604051600081818185875af1925050503d8060008114610c94576040519150601f19603f3d011682016040523d82523d6000602084013e610c99565b606091505b50509050610ca681611472565b5080610cb1816122c1565b915050610c04565b6060600c54421015610d5757600d8054610cd29061225a565b80601f0160208091040260200160405190810160405280929190818152602001828054610cfe9061225a565b8015610d4b5780601f10610d2057610100808354040283529160200191610d4b565b820191906000526020600020905b815481529060010190602001808311610d2e57829003601f168201915b50505050509050919050565b610534826114e1565b919050565b6000610d7060085490565b9050610d7c33826111a9565b610d8681836111c3565b610b58610c01565b610d9661126c565b600c55565b610da361126c565b6001600160a01b038116610e1f5760405162461bcd60e51b815260206004820152602660248201527f4f776e61626c653a206e6577206f776e657220697320746865207a65726f206160448201527f64647265737300000000000000000000000000000000000000000000000000006064820152608401610684565b610949816112c6565b60006001600160e01b031982167f780e9d630000000000000000000000000000000000000000000000000000000014806105345750610534826115ea565b6000818152600260205260409020546001600160a01b03166109495760405162461bcd60e51b815260206004820152601860248201527f4552433732313a20696e76616c696420746f6b656e20494400000000000000006044820152606401610684565b6000818152600460205260409020805473ffffffffffffffffffffffffffffffffffffffff19166001600160a01b0384169081179091558190610f0c82610a0b565b6001600160a01b03167f8c5be1e5ebec7d5bd14f71427d1e84f3dd0314c0f7b2291e5b200ac8c7c3b92560405160405180910390a45050565b600080610f5183610a0b565b9050806001600160a01b0316846001600160a01b03161480610f9857506001600160a01b0380821660009081526005602090815260408083209388168352929052205460ff165b80610fbc5750836001600160a01b0316610fb1846105cc565b6001600160a01b0316145b949350505050565b826001600160a01b0316610fd782610a0b565b6001600160a01b0316146110535760405162461bcd60e51b815260206004820152602560248201527f4552433732313a207472616e736665722066726f6d20696e636f72726563742060448201527f6f776e65720000000000000000000000000000000000000000000000000000006064820152608401610684565b6001600160a01b0382166110ce5760405162461bcd60e51b8152602060048201526024808201527f4552433732313a207472616e7366657220746f20746865207a65726f2061646460448201527f72657373000000000000000000000000000000000000000000000000000000006064820152608401610684565b6110d9838383611685565b6110e4600082610eca565b6001600160a01b038316600090815260036020526040812080546001929061110d908490612325565b90915550506001600160a01b038216600090815260036020526040812080546001929061113b90849061233c565b9091555050600081815260026020526040808220805473ffffffffffffffffffffffffffffffffffffffff19166001600160a01b0386811691821790925591518493918716917fddf252ad1be2c89b69c2b068fc378daa952ba7f163c4a11628f55a4df523b3ef91a4505050565b610b58828260405180602001604052806000815250611690565b6000828152600260205260409020546001600160a01b031661124d5760405162461bcd60e51b815260206004820152602e60248201527f45524337323155524953746f726167653a2055524920736574206f66206e6f6e60448201527f6578697374656e7420746f6b656e0000000000000000000000000000000000006064820152608401610684565b6000828152600a60209081526040909120825161072592840190611dd0565b600b546001600160a01b03163314610b1c5760405162461bcd60e51b815260206004820181905260248201527f4f776e61626c653a2063616c6c6572206973206e6f7420746865206f776e65726044820152606401610684565b600b80546001600160a01b0383811673ffffffffffffffffffffffffffffffffffffffff19831681179093556040519116919082907f8be0079c531659141344cd1fd0a4f28419497f9722a3daafe3b4186f6b6457e090600090a35050565b816001600160a01b0316836001600160a01b031614156113875760405162461bcd60e51b815260206004820152601960248201527f4552433732313a20617070726f766520746f2063616c6c6572000000000000006044820152606401610684565b6001600160a01b03838116600081815260056020908152604080832094871680845294825291829020805460ff191686151590811790915591519182527f17307eab39ab6107e8899845ad3d59bd9653f200f220920489ca2b5937696c31910160405180910390a3505050565b6113ff848484610fc4565b61140b8484848461170e565b610bfb5760405162461bcd60e51b815260206004820152603260248201527f4552433732313a207472616e7366657220746f206e6f6e20455243373231526560448201527131b2b4bb32b91034b6b83632b6b2b73a32b960711b6064820152608401610684565b60405181151560248201526109499060440160408051601f198184030181529190526020810180517bffffffffffffffffffffffffffffffffffffffffffffffffffffffff167f32458eed00000000000000000000000000000000000000000000000000000000179052611866565b60606114ec82610e66565b6000828152600a6020526040812080546115059061225a565b80601f01602080910402602001604051908101604052809291908181526020018280546115319061225a565b801561157e5780601f106115535761010080835404028352916020019161157e565b820191906000526020600020905b81548152906001019060200180831161156157829003601f168201915b50505050509050600061159c60408051602081019091526000815290565b90508051600014156115af575092915050565b8151156115e15780826040516020016115c9929190612354565b60405160208183030381529060405292505050919050565b610fbc84611887565b60006001600160e01b031982167f80ac58cd00000000000000000000000000000000000000000000000000000000148061164d57506001600160e01b031982167f5b5e139f00000000000000000000000000000000000000000000000000000000145b8061053457507f01ffc9a7000000000000000000000000000000000000000000000000000000006001600160e01b0319831614610534565b6107258383836118fb565b61169a83836119b3565b6116a7600084848461170e565b6107255760405162461bcd60e51b815260206004820152603260248201527f4552433732313a207472616e7366657220746f206e6f6e20455243373231526560448201527131b2b4bb32b91034b6b83632b6b2b73a32b960711b6064820152608401610684565b60006001600160a01b0384163b1561185b57604051630a85bd0160e11b81526001600160a01b0385169063150b7a0290611752903390899088908890600401612383565b602060405180830381600087803b15801561176c57600080fd5b505af192505050801561179c575060408051601f3d908101601f19168201909252611799918101906123bf565b60015b611841573d8080156117ca576040519150601f19603f3d011682016040523d82523d6000602084013e6117cf565b606091505b5080516118395760405162461bcd60e51b815260206004820152603260248201527f4552433732313a207472616e7366657220746f206e6f6e20455243373231526560448201527131b2b4bb32b91034b6b83632b6b2b73a32b960711b6064820152608401610684565b805181602001fd5b6001600160e01b031916630a85bd0160e11b149050610fbc565b506001949350505050565b80516a636f6e736f6c652e6c6f67602083016000808483855afa5050505050565b606061189282610e66565b60006118a960408051602081019091526000815290565b905060008151116118c957604051806020016040528060008152506118f4565b806118d384611b0e565b6040516020016118e4929190612354565b6040516020818303038152906040525b9392505050565b6001600160a01b0383166119565761195181600880546000838152600960205260408120829055600182018355919091527ff3f7a9fe364faab93b216da50a3214154f22a0a2b415b23a84c8169e8b636ee30155565b611979565b816001600160a01b0316836001600160a01b031614611979576119798382611c40565b6001600160a01b0382166119905761072581611cdd565b826001600160a01b0316826001600160a01b031614610725576107258282611d8c565b6001600160a01b038216611a095760405162461bcd60e51b815260206004820181905260248201527f4552433732313a206d696e7420746f20746865207a65726f20616464726573736044820152606401610684565b6000818152600260205260409020546001600160a01b031615611a6e5760405162461bcd60e51b815260206004820152601c60248201527f4552433732313a20746f6b656e20616c7265616479206d696e746564000000006044820152606401610684565b611a7a60008383611685565b6001600160a01b0382166000908152600360205260408120805460019290611aa390849061233c565b9091555050600081815260026020526040808220805473ffffffffffffffffffffffffffffffffffffffff19166001600160a01b03861690811790915590518392907fddf252ad1be2c89b69c2b068fc378daa952ba7f163c4a11628f55a4df523b3ef908290a45050565b606081611b4e57505060408051808201909152600181527f3000000000000000000000000000000000000000000000000000000000000000602082015290565b8160005b8115611b785780611b62816122c1565b9150611b719050600a83612311565b9150611b52565b60008167ffffffffffffffff811115611b9357611b93611f9d565b6040519080825280601f01601f191660200182016040528015611bbd576020820181803683370190505b5090505b8415610fbc57611bd2600183612325565b9150611bdf600a866123dc565b611bea90603061233c565b60f81b818381518110611bff57611bff612295565b60200101907effffffffffffffffffffffffffffffffffffffffffffffffffffffffffffff1916908160001a905350611c39600a86612311565b9450611bc1565b60006001611c4d84610a70565b611c579190612325565b600083815260076020526040902054909150808214611caa576001600160a01b03841660009081526006602090815260408083208584528252808320548484528184208190558352600790915290208190555b5060009182526007602090815260408084208490556001600160a01b039094168352600681528383209183525290812055565b600854600090611cef90600190612325565b60008381526009602052604081205460088054939450909284908110611d1757611d17612295565b906000526020600020015490508060088381548110611d3857611d38612295565b6000918252602080832090910192909255828152600990915260408082208490558582528120556008805480611d7057611d706123f0565b6001900381819060005260206000200160009055905550505050565b6000611d9783610a70565b6001600160a01b039093166000908152600660209081526040808320868452825280832085905593825260079052919091209190915550565b828054611ddc9061225a565b90600052602060002090601f016020900481019282611dfe5760008555611e44565b82601f10611e1757805160ff1916838001178555611e44565b82800160010185558215611e44579182015b82811115611e44578251825591602001919060010190611e29565b50611e50929150611e54565b5090565b5b80821115611e505760008155600101611e55565b6001600160e01b03198116811461094957600080fd5b600060208284031215611e9157600080fd5b81356118f481611e69565b60005b83811015611eb7578181015183820152602001611e9f565b83811115610bfb5750506000910152565b60008151808452611ee0816020860160208601611e9c565b601f01601f19169290920160200192915050565b6020815260006118f46020830184611ec8565b600060208284031215611f1957600080fd5b5035919050565b80356001600160a01b0381168114610d6057600080fd5b60008060408385031215611f4a57600080fd5b611f5383611f20565b946020939093013593505050565b600080600060608486031215611f7657600080fd5b611f7f84611f20565b9250611f8d60208501611f20565b9150604084013590509250925092565b634e487b7160e01b600052604160045260246000fd5b604051601f8201601f1916810167ffffffffffffffff81118282101715611fdc57611fdc611f9d565b604052919050565b600067ffffffffffffffff831115611ffe57611ffe611f9d565b612011601f8401601f1916602001611fb3565b905082815283838301111561202557600080fd5b828260208301376000602084830101529392505050565b600082601f83011261204d57600080fd5b6118f483833560208501611fe4565b6000602080838503121561206f57600080fd5b823567ffffffffffffffff8082111561208757600080fd5b818501915085601f83011261209b57600080fd5b8135818111156120ad576120ad611f9d565b8060051b6120bc858201611fb3565b91825283810185019185810190898411156120d657600080fd5b86860192505b83831015612112578235858111156120f45760008081fd5b6121028b89838a010161203c565b83525091860191908601906120dc565b9998505050505050505050565b60006020828403121561213157600080fd5b6118f482611f20565b6000806040838503121561214d57600080fd5b61215683611f20565b91506020830135801515811461216b57600080fd5b809150509250929050565b6000806000806080858703121561218c57600080fd5b61219585611f20565b93506121a360208601611f20565b925060408501359150606085013567ffffffffffffffff8111156121c657600080fd5b8501601f810187136121d757600080fd5b6121e687823560208401611fe4565b91505092959194509250565b60006020828403121561220457600080fd5b813567ffffffffffffffff81111561221b57600080fd5b610fbc8482850161203c565b6000806040838503121561223a57600080fd5b61224383611f20565b915061225160208401611f20565b90509250929050565b600181811c9082168061226e57607f821691505b6020821081141561228f57634e487b7160e01b600052602260045260246000fd5b50919050565b634e487b7160e01b600052603260045260246000fd5b634e487b7160e01b600052601160045260246000fd5b60006000198214156122d5576122d56122ab565b5060010190565b60008160001904831182151516156122f6576122f66122ab565b500290565b634e487b7160e01b600052601260045260246000fd5b600082612320576123206122fb565b500490565b600082821015612337576123376122ab565b500390565b6000821982111561234f5761234f6122ab565b500190565b60008351612366818460208801611e9c565b83519083019061237a818360208801611e9c565b01949350505050565b60006001600160a01b038087168352808616602084015250836040830152608060608301526123b56080830184611ec8565b9695505050505050565b6000602082840312156123d157600080fd5b81516118f481611e69565b6000826123eb576123eb6122fb565b500690565b634e487b7160e01b600052603160045260246000fdfea26469706673582212203c08d825267a8c0a4eeac7dc284da046c24df2b6145450f7201b19291150e57864736f6c6343000808003368747470733a2f2f636267622e6d7970696e6174612e636c6f75642f697066732f516d51435365485a514159516a317343447a336a69654b486534784633726f5a434b666d56784b625755624d3463",
  "linkReferences": {},
  "deployedLinkReferences": {}
}