{
  "_format": "hh-sol-artifact-1",
  "contractName": "CBGBCGI",
  "sourceName": "contracts/CBGBCGI.sol",
  "abi": [
    {
      "inputs": [],
      "stateMutability": "nonpayable",
      "type": "constructor"
    },
    {
      "anonymous": false,
      "inputs": [
        {
          "indexed": true,
          "internalType": "address",
          "name": "owner",
          "type": "address"
        },
        {
          "indexed": true,
          "internalType": "address",
          "name": "approved",
          "type": "address"
        },
        {
          "indexed": true,
          "internalType": "uint256",
          "name": "tokenId",
          "type": "uint256"
        }
      ],
      "name": "Approval",
      "type": "event"
    },
    {
      "anonymous": false,
      "inputs": [
        {
          "indexed": true,
          "internalType": "address",
          "name": "owner",
          "type": "address"
        },
        {
          "indexed": true,
          "internalType": "address",
          "name": "operator",
          "type": "address"
        },
        {
          "indexed": false,
          "internalType": "bool",
          "name": "approved",
          "type": "bool"
        }
      ],
      "name": "ApprovalForAll",
      "type": "event"
    },
    {
      "anonymous": false,
      "inputs": [
        {
          "indexed": true,
          "internalType": "address",
          "name": "previousOwner",
          "type": "address"
        },
        {
          "indexed": true,
          "internalType": "address",
          "name": "newOwner",
          "type": "address"
        }
      ],
      "name": "OwnershipTransferred",
      "type": "event"
    },
    {
      "anonymous": false,
      "inputs": [
        {
          "indexed": true,
          "internalType": "address",
          "name": "from",
          "type": "address"
        },
        {
          "indexed": true,
          "internalType": "address",
          "name": "to",
          "type": "address"
        },
        {
          "indexed": true,
          "internalType": "uint256",
          "name": "tokenId",
          "type": "uint256"
        }
      ],
      "name": "Transfer",
      "type": "event"
    },
    {
      "inputs": [],
      "name": "_sendEther",
      "outputs": [],
      "stateMutability": "payable",
      "type": "function"
    },
    {
      "inputs": [
        {
          "internalType": "address",
          "name": "to",
          "type": "address"
        },
        {
          "internalType": "uint256",
          "name": "tokenId",
          "type": "uint256"
        }
      ],
      "name": "approve",
      "outputs": [],
      "stateMutability": "nonpayable",
      "type": "function"
    },
    {
      "inputs": [
        {
          "internalType": "address",
          "name": "owner",
          "type": "address"
        }
      ],
      "name": "balanceOf",
      "outputs": [
        {
          "internalType": "uint256",
          "name": "",
          "type": "uint256"
        }
      ],
      "stateMutability": "view",
      "type": "function"
    },
    {
      "inputs": [
        {
          "internalType": "string[]",
          "name": "metadataGroup",
          "type": "string[]"
        }
      ],
      "name": "doubleMint",
      "outputs": [],
      "stateMutability": "payable",
      "type": "function"
    },
    {
      "inputs": [],
      "name": "drop_unlock_time",
      "outputs": [
        {
          "internalType": "uint256",
          "name": "",
          "type": "uint256"
        }
      ],
      "stateMutability": "view",
      "type": "function"
    },
    {
      "inputs": [
        {
          "internalType": "uint256",
          "name": "tokenId",
          "type": "uint256"
        }
      ],
      "name": "getApproved",
      "outputs": [
        {
          "internalType": "address",
          "name": "",
          "type": "address"
        }
      ],
      "stateMutability": "view",
      "type": "function"
    },
    {
      "inputs": [],
      "name": "getTime",
      "outputs": [
        {
          "internalType": "uint256",
          "name": "",
          "type": "uint256"
        }
      ],
      "stateMutability": "view",
      "type": "function"
    },
    {
      "inputs": [
        {
          "internalType": "address",
          "name": "owner",
          "type": "address"
        },
        {
          "internalType": "address",
          "name": "operator",
          "type": "address"
        }
      ],
      "name": "isApprovedForAll",
      "outputs": [
        {
          "internalType": "bool",
          "name": "",
          "type": "bool"
        }
      ],
      "stateMutability": "view",
      "type": "function"
    },
    {
      "inputs": [
        {
          "internalType": "string",
          "name": "_uri",
          "type": "string"
        }
      ],
      "name": "mint",
      "outputs": [],
      "stateMutability": "payable",
      "type": "function"
    },
    {
      "inputs": [],
      "name": "name",
      "outputs": [
        {
          "internalType": "string",
          "name": "",
          "type": "string"
        }
      ],
      "stateMutability": "view",
      "type": "function"
    },
    {
      "inputs": [],
      "name": "owner",
      "outputs": [
        {
          "internalType": "address",
          "name": "",
          "type": "address"
        }
      ],
      "stateMutability": "view",
      "type": "function"
    },
    {
      "inputs": [
        {
          "internalType": "uint256",
          "name": "tokenId",
          "type": "uint256"
        }
      ],
      "name": "ownerOf",
      "outputs": [
        {
          "internalType": "address",
          "name": "",
          "type": "address"
        }
      ],
      "stateMutability": "view",
      "type": "function"
    },
    {
      "inputs": [],
      "name": "renounceOwnership",
      "outputs": [],
      "stateMutability": "nonpayable",
      "type": "function"
    },
    {
      "inputs": [
        {
          "internalType": "address",
          "name": "from",
          "type": "address"
        },
        {
          "internalType": "address",
          "name": "to",
          "type": "address"
        },
        {
          "internalType": "uint256",
          "name": "tokenId",
          "type": "uint256"
        }
      ],
      "name": "safeTransferFrom",
      "outputs": [],
      "stateMutability": "nonpayable",
      "type": "function"
    },
    {
      "inputs": [
        {
          "internalType": "address",
          "name": "from",
          "type": "address"
        },
        {
          "internalType": "address",
          "name": "to",
          "type": "address"
        },
        {
          "internalType": "uint256",
          "name": "tokenId",
          "type": "uint256"
        },
        {
          "internalType": "bytes",
          "name": "data",
          "type": "bytes"
        }
      ],
      "name": "safeTransferFrom",
      "outputs": [],
      "stateMutability": "nonpayable",
      "type": "function"
    },
    {
      "inputs": [
        {
          "internalType": "address",
          "name": "operator",
          "type": "address"
        },
        {
          "internalType": "bool",
          "name": "approved",
          "type": "bool"
        }
      ],
      "name": "setApprovalForAll",
      "outputs": [],
      "stateMutability": "nonpayable",
      "type": "function"
    },
    {
      "inputs": [
        {
          "internalType": "uint256",
          "name": "newUnlockTime",
          "type": "uint256"
        }
      ],
      "name": "setUnlockTime",
      "outputs": [],
      "stateMutability": "nonpayable",
      "type": "function"
    },
    {
      "inputs": [
        {
          "internalType": "bytes4",
          "name": "interfaceId",
          "type": "bytes4"
        }
      ],
      "name": "supportsInterface",
      "outputs": [
        {
          "internalType": "bool",
          "name": "",
          "type": "bool"
        }
      ],
      "stateMutability": "view",
      "type": "function"
    },
    {
      "inputs": [],
      "name": "symbol",
      "outputs": [
        {
          "internalType": "string",
          "name": "",
          "type": "string"
        }
      ],
      "stateMutability": "view",
      "type": "function"
    },
    {
      "inputs": [
        {
          "internalType": "uint256",
          "name": "index",
          "type": "uint256"
        }
      ],
      "name": "tokenByIndex",
      "outputs": [
        {
          "internalType": "uint256",
          "name": "",
          "type": "uint256"
        }
      ],
      "stateMutability": "view",
      "type": "function"
    },
    {
      "inputs": [
        {
          "internalType": "address",
          "name": "owner",
          "type": "address"
        },
        {
          "internalType": "uint256",
          "name": "index",
          "type": "uint256"
        }
      ],
      "name": "tokenOfOwnerByIndex",
      "outputs": [
        {
          "internalType": "uint256",
          "name": "",
          "type": "uint256"
        }
      ],
      "stateMutability": "view",
      "type": "function"
    },
    {
      "inputs": [
        {
          "internalType": "uint256",
          "name": "tokenId",
          "type": "uint256"
        }
      ],
      "name": "tokenURI",
      "outputs": [
        {
          "internalType": "string",
          "name": "",
          "type": "string"
        }
      ],
      "stateMutability": "view",
      "type": "function"
    },
    {
      "inputs": [],
      "name": "totalSupply",
      "outputs": [
        {
          "internalType": "uint256",
          "name": "",
          "type": "uint256"
        }
      ],
      "stateMutability": "view",
      "type": "function"
    },
    {
      "inputs": [
        {
          "internalType": "address",
          "name": "from",
          "type": "address"
        },
        {
          "internalType": "address",
          "name": "to",
          "type": "address"
        },
        {
          "internalType": "uint256",
          "name": "tokenId",
          "type": "uint256"
        }
      ],
      "name": "transferFrom",
      "outputs": [],
      "stateMutability": "nonpayable",
      "type": "function"
    },
    {
      "inputs": [
        {
          "internalType": "address",
          "name": "newOwner",
          "type": "address"
        }
      ],
      "name": "transferOwnership",
      "outputs": [],
      "stateMutability": "nonpayable",
      "type": "function"
    },
    {
      "inputs": [],
      "name": "unlock_preview",
      "outputs": [
        {
          "internalType": "string",
          "name": "",
          "type": "string"
        }
      ],
      "stateMutability": "view",
      "type": "function"
    },
    {
      "inputs": [
        {
          "internalType": "uint256",
          "name": "",
          "type": "uint256"
        }
      ],
      "name": "walletPercents",
      "outputs": [
        {
          "internalType": "uint8",
          "name": "",
          "type": "uint8"
        }
      ],
      "stateMutability": "view",
      "type": "function"
    },
    {
      "inputs": [
        {
          "internalType": "uint256",
          "name": "",
          "type": "uint256"
        }
      ],
      "name": "wallets",
      "outputs": [
        {
          "internalType": "address",
          "name": "",
          "type": "address"
        }
      ],
      "stateMutability": "view",
      "type": "function"
    }
  ],
  "bytecode": "0x6363606180600c55610100604052604f6080818152906200283c60a03980516200003291600d9160209091019062000291565b50604080516101e081018252603b8152600a60208201819052918101919091526005606082015260026080820181905260a0820181905260c0820181905260e08201819052610100820181905261012082018190526101408201819052610160820181905261018082018190526101a082018190526101c0820152620000bd90600e90600f62000320565b50604080516101e08101825273f74a589d778f6d1166dca66d0b17263403227e5580825273653229a1c558b87cba440bb82d296bd1e572c23d602083015273fe78bf9d611c6aab734a69810e79e8220278c8979282019290925273ffe7afe2b1fa96045e91e566a903a230cbb99f706060820152731b86c2909c765ec3be7ad953e3bd6f3c748ee07b608082015260a0810182905260c0810182905260e08101829052610100810182905261012081018290526101408101829052610160810182905261018081018290526101a081018290526101c0810191909152620001a890600f9081620003b5565b50348015620001b657600080fd5b5060408051808201825260078152664342474243474960c81b60208083019182528351808501909452600484526321a123a160e11b908401528151919291620002029160009162000291565b5080516200021890600190602084019062000291565b505050620002356200022f6200023b60201b60201c565b6200023f565b62000454565b3390565b600b80546001600160a01b038381166001600160a01b0319831681179093556040519116919082907f8be0079c531659141344cd1fd0a4f28419497f9722a3daafe3b4186f6b6457e090600090a35050565b8280546200029f9062000417565b90600052602060002090601f016020900481019282620002c357600085556200030e565b82601f10620002de57805160ff19168380011785556200030e565b828001600101855582156200030e579182015b828111156200030e578251825591602001919060010190620002f1565b506200031c92915062000400565b5090565b6001830191839082156200030e5791602002820160005b838211156200037757835183826101000a81548160ff021916908360ff160217905550926020019260010160208160000104928301926001030262000337565b8015620003a65782816101000a81549060ff021916905560010160208160000104928301926001030262000377565b50506200031c92915062000400565b82600f81019282156200030e579160200282015b828111156200030e57825182546001600160a01b0319166001600160a01b03909116178255602090920191600190910190620003c9565b5b808211156200031c576000815560010162000401565b600181811c908216806200042c57607f821691505b602082108114156200044e57634e487b7160e01b600052602260045260246000fd5b50919050565b6123d880620004646000396000f3fe6080604052600436106101b75760003560e01c806370a08231116100ec578063b88d4fde1161008a578063d85d3d2711610064578063d85d3d271461049f578063dace4557146104b2578063e985e9c5146104d2578063f2fde38b1461051b57600080fd5b8063b88d4fde14610457578063bc069b9214610477578063c87b56dd1461047f57600080fd5b80638da5cb5b116100c65780638da5cb5b146103d257806395d89b41146103f0578063a22cb46514610405578063a786bf3e1461042557600080fd5b806370a082311461037d578063715018a61461039d5780637ad71f72146103b257600080fd5b80632e1b863f1161015957806342842e0e1161013357806342842e0e1461030a5780634f6ccce71461032a578063557ed1ba1461034a5780636352211e1461035d57600080fd5b80632e1b863f146102c15780632f745c59146102d75780634059df13146102f757600080fd5b8063095ea7b311610195578063095ea7b31461024b5780631643918c1461026d57806318160ddd1461028257806323b872dd146102a157600080fd5b806301ffc9a7146101bc57806306fdde03146101f1578063081812fc14610213575b600080fd5b3480156101c857600080fd5b506101dc6101d7366004611e16565b61053b565b60405190151581526020015b60405180910390f35b3480156101fd57600080fd5b5061020661054c565b6040516101e89190611e8b565b34801561021f57600080fd5b5061023361022e366004611e9e565b6105de565b6040516001600160a01b0390911681526020016101e8565b34801561025757600080fd5b5061026b610266366004611ed3565b610605565b005b34801561027957600080fd5b5061020661073c565b34801561028e57600080fd5b506008545b6040519081526020016101e8565b3480156102ad57600080fd5b5061026b6102bc366004611efd565b6107ca565b3480156102cd57600080fd5b50610293600c5481565b3480156102e357600080fd5b506102936102f2366004611ed3565b610851565b61026b610305366004611ff8565b6108f9565b34801561031657600080fd5b5061026b610325366004611efd565b61095e565b34801561033657600080fd5b50610293610345366004611e9e565b610979565b34801561035657600080fd5b5042610293565b34801561036957600080fd5b50610233610378366004611e9e565b610a1d565b34801561038957600080fd5b506102936103983660046120bb565b610a82565b3480156103a957600080fd5b5061026b610b1c565b3480156103be57600080fd5b506102336103cd366004611e9e565b610b30565b3480156103de57600080fd5b50600b546001600160a01b0316610233565b3480156103fc57600080fd5b50610206610b50565b34801561041157600080fd5b5061026b6104203660046120d6565b610b5f565b34801561043157600080fd5b50610445610440366004611e9e565b610b6e565b60405160ff90911681526020016101e8565b34801561046357600080fd5b5061026b610472366004612112565b610b98565b61026b610c26565b34801561048b57600080fd5b5061020661049a366004611e9e565b610cf1565b61026b6104ad36600461218e565b610cfc565b3480156104be57600080fd5b5061026b6104cd366004611e9e565b610d25565b3480156104de57600080fd5b506101dc6104ed3660046121c3565b6001600160a01b03918216600090815260056020908152604080832093909416825291909152205460ff1690565b34801561052757600080fd5b5061026b6105363660046120bb565b610d32565b600061054682610dbf565b92915050565b60606000805461055b906121f6565b80601f0160208091040260200160405190810160405280929190818152602001828054610587906121f6565b80156105d45780601f106105a9576101008083540402835291602001916105d4565b820191906000526020600020905b8154815290600101906020018083116105b757829003601f168201915b5050505050905090565b60006105e982610dfd565b506000908152600460205260409020546001600160a01b031690565b600061061082610a1d565b9050806001600160a01b0316836001600160a01b0316141561069f5760405162461bcd60e51b815260206004820152602160248201527f4552433732313a20617070726f76616c20746f2063757272656e74206f776e6560448201527f720000000000000000000000000000000000000000000000000000000000000060648201526084015b60405180910390fd5b336001600160a01b03821614806106bb57506106bb81336104ed565b61072d5760405162461bcd60e51b815260206004820152603e60248201527f4552433732313a20617070726f76652063616c6c6572206973206e6f7420746f60448201527f6b656e206f776e6572206e6f7220617070726f76656420666f7220616c6c00006064820152608401610696565b6107378383610e61565b505050565b600d8054610749906121f6565b80601f0160208091040260200160405190810160405280929190818152602001828054610775906121f6565b80156107c25780601f10610797576101008083540402835291602001916107c2565b820191906000526020600020905b8154815290600101906020018083116107a557829003601f168201915b505050505081565b6107d43382610edc565b6108465760405162461bcd60e51b815260206004820152602e60248201527f4552433732313a2063616c6c6572206973206e6f7420746f6b656e206f776e6560448201527f72206e6f7220617070726f7665640000000000000000000000000000000000006064820152608401610696565b610737838383610f5b565b600061085c83610a82565b82106108d05760405162461bcd60e51b815260206004820152602b60248201527f455243373231456e756d657261626c653a206f776e657220696e646578206f7560448201527f74206f6620626f756e64730000000000000000000000000000000000000000006064820152608401610696565b506001600160a01b03919091166000908152600660209081526040808320938352929052205490565b60005b815181101561095257600061091060085490565b905061091c3382611140565b61093f8184848151811061093257610932612231565b602002602001015161115a565b508061094a8161225d565b9150506108fc565b5061095b610c26565b50565b61073783838360405180602001604052806000815250610b98565b600061098460085490565b82106109f85760405162461bcd60e51b815260206004820152602c60248201527f455243373231456e756d657261626c653a20676c6f62616c20696e646578206f60448201527f7574206f6620626f756e647300000000000000000000000000000000000000006064820152608401610696565b60088281548110610a0b57610a0b612231565b90600052602060002001549050919050565b6000818152600260205260408120546001600160a01b0316806105465760405162461bcd60e51b815260206004820152601860248201527f4552433732313a20696e76616c696420746f6b656e20494400000000000000006044820152606401610696565b60006001600160a01b038216610b005760405162461bcd60e51b815260206004820152602960248201527f4552433732313a2061646472657373207a65726f206973206e6f74206120766160448201527f6c6964206f776e657200000000000000000000000000000000000000000000006064820152608401610696565b506001600160a01b031660009081526003602052604090205490565b610b24611203565b610b2e600061125d565b565b600f81600f8110610b4057600080fd5b01546001600160a01b0316905081565b60606001805461055b906121f6565b610b6a3383836112bc565b5050565b600e81600f8110610b7e57600080fd5b60209182820401919006915054906101000a900460ff1681565b610ba23383610edc565b610c145760405162461bcd60e51b815260206004820152602e60248201527f4552433732313a2063616c6c6572206973206e6f7420746f6b656e206f776e6560448201527f72206e6f7220617070726f7665640000000000000000000000000000000000006064820152608401610696565b610c208484848461138b565b50505050565b60005b600f81101561095b576000600f82600f8110610c4757610c47612231565b01546001600160a01b03166064600e84600f8110610c6757610c67612231565b602081049190910154610c8691601f166101000a900460ff1634612278565b610c9091906122ad565b604051600081818185875af1925050503d8060008114610ccc576040519150601f19603f3d011682016040523d82523d6000602084013e610cd1565b606091505b50509050610cde81611409565b5080610ce98161225d565b915050610c29565b606061054682611478565b6000610d0760085490565b9050610d133382611140565b610d1d818361115a565b610b6a610c26565b610d2d611203565b600c55565b610d3a611203565b6001600160a01b038116610db65760405162461bcd60e51b815260206004820152602660248201527f4f776e61626c653a206e6577206f776e657220697320746865207a65726f206160448201527f64647265737300000000000000000000000000000000000000000000000000006064820152608401610696565b61095b8161125d565b60006001600160e01b031982167f780e9d63000000000000000000000000000000000000000000000000000000001480610546575061054682611581565b6000818152600260205260409020546001600160a01b031661095b5760405162461bcd60e51b815260206004820152601860248201527f4552433732313a20696e76616c696420746f6b656e20494400000000000000006044820152606401610696565b6000818152600460205260409020805473ffffffffffffffffffffffffffffffffffffffff19166001600160a01b0384169081179091558190610ea382610a1d565b6001600160a01b03167f8c5be1e5ebec7d5bd14f71427d1e84f3dd0314c0f7b2291e5b200ac8c7c3b92560405160405180910390a45050565b600080610ee883610a1d565b9050806001600160a01b0316846001600160a01b03161480610f2f57506001600160a01b0380821660009081526005602090815260408083209388168352929052205460ff165b80610f535750836001600160a01b0316610f48846105de565b6001600160a01b0316145b949350505050565b826001600160a01b0316610f6e82610a1d565b6001600160a01b031614610fea5760405162461bcd60e51b815260206004820152602560248201527f4552433732313a207472616e736665722066726f6d20696e636f72726563742060448201527f6f776e65720000000000000000000000000000000000000000000000000000006064820152608401610696565b6001600160a01b0382166110655760405162461bcd60e51b8152602060048201526024808201527f4552433732313a207472616e7366657220746f20746865207a65726f2061646460448201527f72657373000000000000000000000000000000000000000000000000000000006064820152608401610696565b61107083838361161c565b61107b600082610e61565b6001600160a01b03831660009081526003602052604081208054600192906110a49084906122c1565b90915550506001600160a01b03821660009081526003602052604081208054600192906110d29084906122d8565b9091555050600081815260026020526040808220805473ffffffffffffffffffffffffffffffffffffffff19166001600160a01b0386811691821790925591518493918716917fddf252ad1be2c89b69c2b068fc378daa952ba7f163c4a11628f55a4df523b3ef91a4505050565b610b6a828260405180602001604052806000815250611627565b6000828152600260205260409020546001600160a01b03166111e45760405162461bcd60e51b815260206004820152602e60248201527f45524337323155524953746f726167653a2055524920736574206f66206e6f6e60448201527f6578697374656e7420746f6b656e0000000000000000000000000000000000006064820152608401610696565b6000828152600a60209081526040909120825161073792840190611d67565b600b546001600160a01b03163314610b2e5760405162461bcd60e51b815260206004820181905260248201527f4f776e61626c653a2063616c6c6572206973206e6f7420746865206f776e65726044820152606401610696565b600b80546001600160a01b0383811673ffffffffffffffffffffffffffffffffffffffff19831681179093556040519116919082907f8be0079c531659141344cd1fd0a4f28419497f9722a3daafe3b4186f6b6457e090600090a35050565b816001600160a01b0316836001600160a01b0316141561131e5760405162461bcd60e51b815260206004820152601960248201527f4552433732313a20617070726f766520746f2063616c6c6572000000000000006044820152606401610696565b6001600160a01b03838116600081815260056020908152604080832094871680845294825291829020805460ff191686151590811790915591519182527f17307eab39ab6107e8899845ad3d59bd9653f200f220920489ca2b5937696c31910160405180910390a3505050565b611396848484610f5b565b6113a2848484846116a5565b610c205760405162461bcd60e51b815260206004820152603260248201527f4552433732313a207472616e7366657220746f206e6f6e20455243373231526560448201527131b2b4bb32b91034b6b83632b6b2b73a32b960711b6064820152608401610696565b604051811515602482015261095b9060440160408051601f198184030181529190526020810180517bffffffffffffffffffffffffffffffffffffffffffffffffffffffff167f32458eed000000000000000000000000000000000000000000000000000000001790526117fd565b606061148382610dfd565b6000828152600a60205260408120805461149c906121f6565b80601f01602080910402602001604051908101604052809291908181526020018280546114c8906121f6565b80156115155780601f106114ea57610100808354040283529160200191611515565b820191906000526020600020905b8154815290600101906020018083116114f857829003601f168201915b50505050509050600061153360408051602081019091526000815290565b9050805160001415611546575092915050565b8151156115785780826040516020016115609291906122f0565b60405160208183030381529060405292505050919050565b610f538461181e565b60006001600160e01b031982167f80ac58cd0000000000000000000000000000000000000000000000000000000014806115e457506001600160e01b031982167f5b5e139f00000000000000000000000000000000000000000000000000000000145b8061054657507f01ffc9a7000000000000000000000000000000000000000000000000000000006001600160e01b0319831614610546565b610737838383611892565b611631838361194a565b61163e60008484846116a5565b6107375760405162461bcd60e51b815260206004820152603260248201527f4552433732313a207472616e7366657220746f206e6f6e20455243373231526560448201527131b2b4bb32b91034b6b83632b6b2b73a32b960711b6064820152608401610696565b60006001600160a01b0384163b156117f257604051630a85bd0160e11b81526001600160a01b0385169063150b7a02906116e990339089908890889060040161231f565b602060405180830381600087803b15801561170357600080fd5b505af1925050508015611733575060408051601f3d908101601f191682019092526117309181019061235b565b60015b6117d8573d808015611761576040519150601f19603f3d011682016040523d82523d6000602084013e611766565b606091505b5080516117d05760405162461bcd60e51b815260206004820152603260248201527f4552433732313a207472616e7366657220746f206e6f6e20455243373231526560448201527131b2b4bb32b91034b6b83632b6b2b73a32b960711b6064820152608401610696565b805181602001fd5b6001600160e01b031916630a85bd0160e11b149050610f53565b506001949350505050565b80516a636f6e736f6c652e6c6f67602083016000808483855afa5050505050565b606061182982610dfd565b600061184060408051602081019091526000815290565b90506000815111611860576040518060200160405280600081525061188b565b8061186a84611aa5565b60405160200161187b9291906122f0565b6040516020818303038152906040525b9392505050565b6001600160a01b0383166118ed576118e881600880546000838152600960205260408120829055600182018355919091527ff3f7a9fe364faab93b216da50a3214154f22a0a2b415b23a84c8169e8b636ee30155565b611910565b816001600160a01b0316836001600160a01b031614611910576119108382611bd7565b6001600160a01b0382166119275761073781611c74565b826001600160a01b0316826001600160a01b031614610737576107378282611d23565b6001600160a01b0382166119a05760405162461bcd60e51b815260206004820181905260248201527f4552433732313a206d696e7420746f20746865207a65726f20616464726573736044820152606401610696565b6000818152600260205260409020546001600160a01b031615611a055760405162461bcd60e51b815260206004820152601c60248201527f4552433732313a20746f6b656e20616c7265616479206d696e746564000000006044820152606401610696565b611a116000838361161c565b6001600160a01b0382166000908152600360205260408120805460019290611a3a9084906122d8565b9091555050600081815260026020526040808220805473ffffffffffffffffffffffffffffffffffffffff19166001600160a01b03861690811790915590518392907fddf252ad1be2c89b69c2b068fc378daa952ba7f163c4a11628f55a4df523b3ef908290a45050565b606081611ae557505060408051808201909152600181527f3000000000000000000000000000000000000000000000000000000000000000602082015290565b8160005b8115611b0f5780611af98161225d565b9150611b089050600a836122ad565b9150611ae9565b60008167ffffffffffffffff811115611b2a57611b2a611f39565b6040519080825280601f01601f191660200182016040528015611b54576020820181803683370190505b5090505b8415610f5357611b696001836122c1565b9150611b76600a86612378565b611b819060306122d8565b60f81b818381518110611b9657611b96612231565b60200101907effffffffffffffffffffffffffffffffffffffffffffffffffffffffffffff1916908160001a905350611bd0600a866122ad565b9450611b58565b60006001611be484610a82565b611bee91906122c1565b600083815260076020526040902054909150808214611c41576001600160a01b03841660009081526006602090815260408083208584528252808320548484528184208190558352600790915290208190555b5060009182526007602090815260408084208490556001600160a01b039094168352600681528383209183525290812055565b600854600090611c86906001906122c1565b60008381526009602052604081205460088054939450909284908110611cae57611cae612231565b906000526020600020015490508060088381548110611ccf57611ccf612231565b6000918252602080832090910192909255828152600990915260408082208490558582528120556008805480611d0757611d0761238c565b6001900381819060005260206000200160009055905550505050565b6000611d2e83610a82565b6001600160a01b039093166000908152600660209081526040808320868452825280832085905593825260079052919091209190915550565b828054611d73906121f6565b90600052602060002090601f016020900481019282611d955760008555611ddb565b82601f10611dae57805160ff1916838001178555611ddb565b82800160010185558215611ddb579182015b82811115611ddb578251825591602001919060010190611dc0565b50611de7929150611deb565b5090565b5b80821115611de75760008155600101611dec565b6001600160e01b03198116811461095b57600080fd5b600060208284031215611e2857600080fd5b813561188b81611e00565b60005b83811015611e4e578181015183820152602001611e36565b83811115610c205750506000910152565b60008151808452611e77816020860160208601611e33565b601f01601f19169290920160200192915050565b60208152600061188b6020830184611e5f565b600060208284031215611eb057600080fd5b5035919050565b80356001600160a01b0381168114611ece57600080fd5b919050565b60008060408385031215611ee657600080fd5b611eef83611eb7565b946020939093013593505050565b600080600060608486031215611f1257600080fd5b611f1b84611eb7565b9250611f2960208501611eb7565b9150604084013590509250925092565b634e487b7160e01b600052604160045260246000fd5b604051601f8201601f1916810167ffffffffffffffff81118282101715611f7857611f78611f39565b604052919050565b600067ffffffffffffffff831115611f9a57611f9a611f39565b611fad601f8401601f1916602001611f4f565b9050828152838383011115611fc157600080fd5b828260208301376000602084830101529392505050565b600082601f830112611fe957600080fd5b61188b83833560208501611f80565b6000602080838503121561200b57600080fd5b823567ffffffffffffffff8082111561202357600080fd5b818501915085601f83011261203757600080fd5b81358181111561204957612049611f39565b8060051b612058858201611f4f565b918252838101850191858101908984111561207257600080fd5b86860192505b838310156120ae578235858111156120905760008081fd5b61209e8b89838a0101611fd8565b8352509186019190860190612078565b9998505050505050505050565b6000602082840312156120cd57600080fd5b61188b82611eb7565b600080604083850312156120e957600080fd5b6120f283611eb7565b91506020830135801515811461210757600080fd5b809150509250929050565b6000806000806080858703121561212857600080fd5b61213185611eb7565b935061213f60208601611eb7565b925060408501359150606085013567ffffffffffffffff81111561216257600080fd5b8501601f8101871361217357600080fd5b61218287823560208401611f80565b91505092959194509250565b6000602082840312156121a057600080fd5b813567ffffffffffffffff8111156121b757600080fd5b610f5384828501611fd8565b600080604083850312156121d657600080fd5b6121df83611eb7565b91506121ed60208401611eb7565b90509250929050565b600181811c9082168061220a57607f821691505b6020821081141561222b57634e487b7160e01b600052602260045260246000fd5b50919050565b634e487b7160e01b600052603260045260246000fd5b634e487b7160e01b600052601160045260246000fd5b600060001982141561227157612271612247565b5060010190565b600081600019048311821515161561229257612292612247565b500290565b634e487b7160e01b600052601260045260246000fd5b6000826122bc576122bc612297565b500490565b6000828210156122d3576122d3612247565b500390565b600082198211156122eb576122eb612247565b500190565b60008351612302818460208801611e33565b835190830190612316818360208801611e33565b01949350505050565b60006001600160a01b038087168352808616602084015250836040830152608060608301526123516080830184611e5f565b9695505050505050565b60006020828403121561236d57600080fd5b815161188b81611e00565b60008261238757612387612297565b500690565b634e487b7160e01b600052603160045260246000fdfea26469706673582212205b528ed923f71ad74b529c294b058f784cbce2254fc3ad0ea9e9c55e92bab6aa64736f6c6343000808003368747470733a2f2f636267622e6d7970696e6174612e636c6f75642f697066732f516d58567373314268654d4e74576876425171563631337575396e6836376663466839654d464639617661646678",
  "linkReferences": {},
  "deployedLinkReferences": {}
}